:020000040800F2
:1000000000000220551900082D17000835170008B8
:100010003D170008451700084D17000800000000B4
:10002000000000000000000000000000551700085C
:100030006317000800000000711700087F17000810
:10004000A5190008A5190008A5190008A519000898
:10005000A5190008A5190008A5190008A519000888
:10006000A5190008A5190008A5190008A519000878
:100070008D170008A5190008A5190008A519000882
:10008000A1170008A5190008A5190008A51900085E
:10009000A5190008A5190008A5190008A519000848
:1000A000A5190008A5190008A5190008A519000838
:1000B000A5190008A5190008A5190008A519000828
:1000C000A5190008A5190008A5190008A519000818
:1000D000A5190008A5190008B5170008C9170008D8
:1000E000A5190008A5190008A5190008A5190008F8
:1000F000A5190008A5190008A5190008A5190008E8
:10010000A5190008A5190008A5190008A5190008D7
:10011000A5190008A5190008A5190008A5190008C7
:10012000A5190008A5190008A5190008A5190008B7
:10013000A51900080000000000000000A519000833
:10014000A5190008A5190008A5190008A519000897
:10015000A5190008A5190008A5190008A519000887
:10016000A5190008A5190008A5190008A519000877
:10017000A5190008A5190008A5190008000000002D
:1001800000000000A51900080000000000000000A9
:10019000A51900080000000000000000A5190008D3
:1001A000000000000000000000000000A519000889
:1001B000A5190008A5190008A5190008A519000827
:0401C000A519000875
:1001D00010B5054C237833B9044B13B10448AFF381
:1001E00000800123237010BD0802002000000000E1
:1001F000A41A040808B5034B1BB103490348AFF325
:10020000008008BD000000000C020020A41A0408B1
:1002100001F0FF01102A2BDB10F0070F08D010F8B7
:10022000013B013A8B422DD010F0070F42B3F6D1BB
:10023000F0B441EA012141EA014122F007047FF0D4
:1002400000070023F0E80256083C85EA010586EA2B
:10025000010685FA47F5A3FA87F586FA47F6A5FA67
:1002600087F68EB9EED1F0BC01F0FF0102F0070273
:1002700032B110F8013B013A83EA010313B1F8D11E
:100280000020704701387047002D06BF35460338FF
:10029000073815F0010F07D1013015F4807F02BF38
:1002A000013015F4C03F0130F0BC0138704700BF89
:1002B000034613F8012B002AFBD1181A01387047A6
:1002C00081F0004102E000BF83F0004330B54FEA07
:1002D00041044FEA430594EA050F08BF90EA020F74
:1002E0001FBF54EA000C55EA020C7FEA645C7FEA07
:1002F000655C00F0E2804FEA5454D4EB5555B8BF2A
:100300006D420CDD2C4480EA020281EA030382EA9A
:10031000000083EA010180EA020281EA0303362D2C
:1003200088BF30BD11F0004F4FEA01314FF4801CFF
:100330004CEA113102D0404261EB410113F0004F11
:100340004FEA03334CEA133302D0524263EB4303C8
:1003500094EA050F00F0A780A4F10104D5F1200E66
:100360000DDB02FA0EFC22FA05F2801841F10001C1
:1003700003FA0EF2801843FA05F359410EE0A5F195
:1003800020050EF1200E012A03FA0EFC28BF4CF0C6
:10039000020C43FA05F3C01851EBE37101F000457C
:1003A00007D54FF0000EDCF1000C7EEB00006EEB89
:1003B0000101B1F5801F1BD3B1F5001F0CD3490813
:1003C0005FEA30004FEA3C0C04F101044FEA44526A
:1003D00012F5800F80F09A80BCF1004F08BF5FEAF1
:1003E000500C50F1000041EB045141EA050130BDD1
:1003F0005FEA4C0C404141EB0101013C28BFB1F5E3
:10040000801FE9D291F0000F04BF01460020B1FA2D
:1004100081F308BF2033A3F10B03B3F120020CDA00
:100420000C3208DD02F1140CC2F10C0201FA0CF0DE
:1004300021FA02F10CE002F11402D8BFC2F1200C43
:1004400001FA02F120FA0CFCDCBF41EA0C019040F9
:10045000E41AA2BF01EB0451294330BD6FEA040442
:100460001F3C1CDA0C340EDC04F11404C4F120022D
:1004700020FA04F001FA02F340EA030021FA04F33F
:1004800045EA030130BDC4F10C04C4F1200220FA96
:1004900002F001FA04F340EA0300294630BD21FAD4
:1004A00004F0294630BD94F0000F83F4801306BF9A
:1004B00081F480110134013D4EE77FEA645C18BF8E
:1004C0007FEA655C29D094EA050F08BF90EA020F25
:1004D00005D054EA000C04BF1946104630BD91EA1D
:1004E000030F1EBF0021002030BD5FEA545C05D120
:1004F0004000494128BF41F0004130BD14F580045F
:100500003CBF01F5801130BD01F0004545F0FE41D2
:1005100041F470014FF0000030BD7FEA645C1ABF07
:10052000194610467FEA655C1CBF0B46024650EA3E
:10053000013406BF52EA033591EA030F41F400216A
:1005400030BD00BF90F0000F04BF0021704730B5F0
:100550004FF4806404F132044FF000054FF00001C5
:1005600050E700BF90F0000F04BF0021704730B586
:100570004FF4806404F1320410F0004548BF40425B
:100580004FF000013EE700BF42004FEAE2014FEAB0
:1005900031014FEA02701FBF12F07F4393F07F4F8B
:1005A00081F06051704732F07F4208BF704793F08E
:1005B0007F4F04BF41F40021704730B54FF46074A1
:1005C00001F0004521F000411CE700BF50EA0102A4
:1005D00008BF704730B54FF000050AE050EA01024D
:1005E00008BF704730B511F0004502D5404261EBBD
:1005F00041014FF4806404F132045FEA915C3FF4FE
:10060000D8AE4FF003025FEADC0C18BF03325FEA9A
:10061000DC0C18BF033202EBDC02C2F1200300FA4B
:1006200003FC20FA02F001FA03FE40EA0E0021FA70
:1006300002F11444BDE600BF70B54FF0FF0C4CF45E
:10064000E06C1CEA11541DBF1CEA135594EA0C0F10
:1006500095EA0C0F00F0DEF82C4481EA030621EA4B
:100660004C5123EA4C5350EA013518BF52EA033586
:1006700041F4801143F4801338D0A0FB02CE4FF038
:100680000005E1FB02E506F00042E0FB03E54FF068
:100690000006E1FB03569CF0000F18BF4EF0010E60
:1006A000A4F1FF04B6F5007F64F5407404D25FEA5C
:1006B0004E0E6D4146EB060642EAC62141EA55510F
:1006C0004FEAC52040EA5E504FEACE2EB4F1FD0C51
:1006D00088BFBCF5E06F1ED8BEF1004F08BF5FEACF
:1006E000500E50F1000041EB045170BD06F0004681
:1006F00046EA010140EA020081EA0301B4EB5C042E
:10070000C2BFD4EB0C0541EA045170BD41F4801125
:100710004FF0000E013C00F3AB8014F1360FDEBF4A
:10072000002001F0004170BDC4F10004203C35DA26
:100730000C341BDC04F11404C4F1200500FA05F3A9
:1007400020FA04F001FA05F240EA020001F000424A
:1007500021F0004110EBD37021FA04F642EB0601C0
:100760005EEA430E08BF20EAD37070BDC4F10C04EA
:10077000C4F1200500FA04F320FA05F001FA04F2AE
:1007800040EA020001F0004110EBD37041F100019A
:100790005EEA430E08BF20EAD37070BDC4F12005A5
:1007A00000FA05F24EEA020E20FA04F301FA05F20D
:1007B00043EA020321FA04F001F0004121FA04F2B5
:1007C00020EA020000EBD3705EEA430E08BF20EA85
:1007D000D37070BD94F0000F0FD101F000464000BF
:1007E00041EB010111F4801F08BF013CF7D041EA41
:1007F000060195F0000F18BF704703F00046520045
:1008000043EB030313F4801F08BF013DF7D043EA15
:100810000603704794EA0C0F0CEA135518BF95EACB
:100820000C0F0CD050EA410618BF52EA4306D1D152
:1008300081EA030101F000414FF0000070BD50EA71
:10084000410606BF1046194652EA430619D094EAFB
:100850000C0F02D150EA013613D195EA0C0F05D1E5
:1008600052EA03361CBF104619460AD181EA030139
:1008700001F0004141F0FE4141F470014FF00000F1
:1008800070BD41F0FE4141F4780170BD70B54FF08C
:10089000FF0C4CF4E06C1CEA11541DBF1CEA13550C
:1008A00094EA0C0F95EA0C0F00F0A7F8A4EB0504EE
:1008B00081EA030E52EA03354FEA013100F08880E5
:1008C0004FEA03334FF0805545EA131343EA1263AE
:1008D0004FEA022245EA111545EA10654FEA002663
:1008E0000EF000419D4208BF964244F1FD0404F51C
:1008F000407402D25B084FEA3202B61A65EB030578
:100900005B084FEA32024FF480104FF4002CB6EB34
:10091000020E75EB030E22BFB61A754640EA0C00B4
:100920005B084FEA3202B6EB020E75EB030E22BFF4
:10093000B61A754640EA5C005B084FEA3202B6EB35
:10094000020E75EB030E22BFB61A754640EA9C00F4
:100950005B084FEA3202B6EB020E75EB030E22BFC4
:10096000B61A754640EADC0055EA060E18D04FEA82
:10097000051545EA16754FEA06164FEAC30343EA22
:1009800052734FEAC2025FEA1C1CC0D111F4801FEF
:100990000BD141EA00014FF000004FF0004CB6E7E8
:1009A00011F4801F04BF01430020B4F1FD0C88BF87
:1009B000BCF5E06F3FF6AFAEB5EB030C04BFB6EB92
:1009C000020C5FEA500C50F1000041EB045170BD85
:1009D0000EF0004E4EEA113114EB5C04C2BFD4EBB2
:1009E0000C0541EA045170BD41F480114FF0000E36
:1009F000013C90E645EA060E8DE60CEA135594EAB2
:100A00000C0F08BF95EA0C0F3FF43BAF94EA0C0FB4
:100A10000AD150EA01347FF434AF95EA0C0F7FF429
:100A200025AF104619462CE795EA0C0F06D152EA7D
:100A300003353FF4FDAE1046194622E750EA410661
:100A400018BF52EA43067FF4C5AE50EA41047FF472
:100A50000DAF52EA43057FF4EBAE12E74FF0FF3CD7
:100A600006E000BF4FF0010C02E000BF4FF0010CA8
:100A70004DF804CD4FEA410C7FEA6C5C4FEA430C21
:100A800018BF7FEA6C5C1BD001B050EA410C0CBF70
:100A900052EA430C91EA030F02BF90EA020F0020D2
:100AA000704710F1000F91EA030F58BF994208BF39
:100AB00090422CBFD8176FEAE37040F001007047F6
:100AC0004FEA410C7FEA6C5C02D150EA013C07D14D
:100AD0004FEA430C7FEA6C5CD6D152EA033CD3D098
:100AE0005DF8040B704700BF8446104662468C4692
:100AF0001946634600E000BF01B5FFF7B7FF0028C5
:100B000048BF10F1000F01BD4DF808EDFFF7F4FFED
:100B10000CBF012000205DF808FB00BF4DF808ED78
:100B2000FFF7EAFF34BF012000205DF808FB00BF9B
:100B30004DF808EDFFF7E0FF94BF012000205DF8BD
:100B400008FB00BF4DF808EDFFF7CEFF94BF012072
:100B500000205DF808FB00BF4DF808EDFFF7C4FF6B
:100B600034BF012000205DF808FB00BF4FEA410CB4
:100B70007FEA6C5C02D150EA013C0AD14FEA430C97
:100B80007FEA6C5C02D152EA033C02D14FF00000D4
:100B900070474FF0010070474FEA410212F5001212
:100BA00015D211D56FF47873B3EB625212D94FEAB4
:100BB000C12343F0004343EA505311F0004F23FA9E
:100BC00002F018BF404270474FF00000704750EAF3
:100BD000013005D111F0004008BF6FF000407047B0
:100BE0004FF00000704700BF4A0011D212F500120A
:100BF00011D20DD56FF47873B3EB62520ED44FEA75
:100C0000C12343F0004343EA505323FA02F07047F4
:100C10004FF00000704750EA013002D14FF0FF3032
:100C200070474FF00000704753B94AB9002908BF18
:100C300000281CBF4FF0FF314FF0FF3000F06AB9C1
:100C4000ADF1080C6DE904CE00F006F8DDF804E023
:100C5000DDE9022304B070472DE9F047089D0C46FA
:100C6000002B4ED194468C458646B2FA82F262D968
:100C70004AB1C2F12003914020FA03F30CFA02FCBE
:100C8000194300FA02FE4FEA1C471FFA8CF6B1FB2B
:100C9000F7F44FEA1E4307FB141143EA014304FB38
:100CA00006F199420AD91CEB030304F1FF3080F0EE
:100CB0001281994240F20F81023C6344591A1FFA93
:100CC0008EF3B1FBF7F007FB101143EA014300FB81
:100CD00006F69E420AD91CEB030300F1FF3180F0B7
:100CE000FC809E4240F2F980634402389B1B40EA3C
:100CF000044000211DB1D3400022C5E90032BDE807
:100D0000F0878B4205D90DB1C5E9000100210846E5
:100D1000F5E7B3FA83F1002946D1A34202D390420A
:100D2000C0F0F080861A64EB03030120002DE6D0AA
:100D3000C5E90063E3E7002A40F09080A1EB0C04D2
:100D40004FEA1C481FFA8CF70121B4FBF8F64FEA72
:100D50001E4308FB164443EA044307FB06F098428F
:100D600008D91CEB030306F1FF3402D2984200F2CB
:100D7000CD8026461C1A1FFA8EF3B4FBF8F008FB50
:100D8000104443EA044300FB07F79F4208D91CEBD9
:100D9000030300F1FF3402D29F4200F2B0802046EC
:100DA000DB1B40EA0640A5E7C1F120068B4022FA92
:100DB00006F71F4320FA06FC04FA01F343EA0C038A
:100DC000F44000FA01F8380C4FEA1349B4FBF0FE86
:100DD0001FFA87FC00FB1E4449EA04440EFB0CF991
:100DE000A14502FA01F20AD93C190EF1FF3A80F04E
:100DF0008480A14540F28180AEF1020E3C44A4EB18
:100E000009041FFA83F9B4FBF0F300FB134449EA29
:100E1000044403FB0CFCA44507D93C1903F1FF3043
:100E200067D2A44565D9023B3C4443EA0E40A0FB8F
:100E30000293A4EB0C049C42CE469C4651D34ED068
:100E400055B1B8EB0E0364EB0C0404FA06F6CB4084
:100E50001E43CC40C5E90064002150E7C2F12003E5
:100E600020FA03F10CFA02FC24FA03F394400C4339
:100E70004FEA1C4800FA02FE1FFA8CF7B3FBF8F0A9
:100E800008FB1031230C43EA014300FB07F19942B0
:100E900008D91CEB030300F1FF362CD299422AD962
:100EA000023863445B1AA4B2B3FBF8F108FB1133B8
:100EB00044EA034401FB07F3A34208D91CEB0404F2
:100EC00001F1FF3613D2A34211D902396444E41A66
:100ED00041EA004139E70446F0E6084606E7C8451E
:100EE000AED2B9EB020E63EB070C0138A8E731462E
:100EF000EDE7034699E73046D4E7D6467FE76344FB
:100F000002384DE70646234608460FE7023E634493
:100F100030E700BF704700BF80B582B000AF786097
:100F2000391D4FF6FF730122034803F021F87B6857
:100F300018460837BD4680BD8802002080B586B0BF
:100F400000AFF860B9607A6000237B6109E0BB689C
:100F50005A1CBA601B781846FFF7DEFF7B69013325
:100F60007B617A697B689A42F1DB7B6818461837A7
:100F7000BD4680BD80B500AF00F016FD164B1B6866
:100F800058680023022200213DF036FD124B1B68F9
:100F900098680023022200213DF02EFD0E4B1B68B5
:100FA000D8680023022200213DF026FD00F018F849
:100FB00000F056F900F02CF900F0D2F800F0A6F895
:100FC00000F0F8F800F07CF800203CF0A1FD0348A8
:100FD0003DF00AFDFBE700BF38000020C01A0408FE
:100FE00080B594B000AF07F11C03342200211846ED
:100FF0003DF0B8FE07F1080300221A605A609A60BB
:10100000DA601A6100237B602B4B1B6C2A4A43F089
:1010100080531364284B1B6C03F080537B607B6808
:1010200000233B60254B1B68244A43F44043136074
:10103000224B1B6803F440433B603B680923FB6180
:101040004FF4A0233B6201237B6201233B63022315
:101050007B634FF48003BB630423FB63A8233B64DF
:1010600002237B640723BB640223FB6407F11C0398
:10107000184602F0ADFB0346002B01D000F09EF9AC
:101080000F23BB600223FB6000233B614FF4A0539E
:101090007B614FF48053BB6107F1080305211846BB
:1010A00001F022FD0346002B01D000F087F900BFBC
:1010B0005037BD4680BD00BF003802400070004080
:1010C00080B500AF0F4B104A1A600E4B00225A60D9
:1010D0000C4B7F229A600B4BFF22DA60094B0022F7
:1010E0001A61084B00225A61064B00229A6105489A
:1010F00002F00CFE0346002B01D000F05FF900BFA8
:1011000080BD00BF240200200028004080B500AF51
:10111000114B124A1A60104B4FF4E1325A600E4BD9
:1011200000229A600C4B0022DA600B4B00221A61FD
:10113000094B0C225A61084B00229A61064B00228F
:10114000DA61054802F0C7FE0346002B01D000F02B
:1011500035F900BF80BD00BF4402002000440040BC
:1011600080B500AF114B124A1A60104B4FF4E132B8
:101170005A600E4B00229A600C4B0022DA600B4B37
:1011800000221A61094B0C225A61084B00229A6115
:10119000064B0022DA61054802F09DFE0346002B53
:1011A00001D000F00BF900BF80BD00BF8802002015
:1011B0000048004080B500AF144B4FF0A0421A60C9
:1011C000124B06225A60114B0222DA600F4B0022AA
:1011D0001A610E4B02229A610C4B0122DA610B4B11
:1011E00000221A62094B00225A62084B0122DA627D
:1011F000064B00221A63054801F02DFB0346002B25
:1012000001D000F0DBF800BF80BD00BF8C030020E0
:1012100080B582B000AF00237B60104B1B6B0F4A80
:1012200043F4001313630D4B1B6B03F400137B603B
:101230007B68002200210C2000F027FD0C2000F02C
:1012400040FD00220021102000F01FFD102000F0C2
:1012500038FD00BF0837BD4680BD00BF00380240E2
:1012600080B58CB000AF07F11C0300221A605A60F1
:101270009A60DA601A610023BB614B4B1B6B4A4AD0
:1012800043F004031363484B1B6B03F00403BB617F
:10129000BB6900237B61444B1B6B434A43F08003D3
:1012A0001363414B1B6B03F080037B617B6900235D
:1012B0003B613D4B1B6B3C4A43F0020313633A4BCB
:1012C0001B6B03F002033B613B690023FB60364B61
:1012D0001B6B354A43F008031363334B1B6B03F05E
:1012E0000803FB60FB680023BB602F4B1B6B2E4A7F
:1012F00043F0400313632C4B1B6B03F04003BB60B4
:10130000BB6800237B60284B1B6B274A43F001031B
:101310001363254B1B6B03F001037B607B6800228A
:1013200044F28101214801F07DFA00224021204849
:1013300001F078FA4FF40053FB611E4B3B6200232F
:101340007B6207F11C0319461B4801F0D7F844F2F1
:101350008103FB6101233B6200237B620023BB62AC
:1013600007F11C031946114801F0C8F84023FB613E
:1013700001233B6200237B620023BB6207F11C0355
:1013800019460B4801F0BAF88023FB6100233B6249
:1013900000237B6207F11C031946054801F0AEF8F3
:1013A00000BF3037BD4680BD003802400004024017
:1013B00000180240000011100008024080B400AF85
:1013C00072B600BF00BFFDE780B483B000AF00235A
:1013D0007B60104B5B6C0F4A43F4804353640D4BAE
:1013E0005B6C03F480437B607B6800233B60094BAC
:1013F0001B6C084A43F080531364064B1B6C03F0CC
:1014000080533B603B6800BF0C37BD465DF8047BF2
:10141000704700BF0038024080B59AB000AF7860D6
:1014200007F10C035C22002118463DF09BFC7B6811
:101430001B680C4A934211D12023FB604FF40073C8
:10144000FB6407F10C03184601F068FC0346002B0F
:1014500001D0FFF7B3FF044B01221A6000BF6837C9
:10146000BD4680BD002800403C0E474280B58CB090
:1014700000AF786007F11C0300221A605A609A607E
:10148000DA601A617B681B68684A934262D1002364
:10149000BB61674B1B6C664A43F400331364644BB7
:1014A0001B6C03F40033BB61BB6900237B61604BA1
:1014B0001B6B5F4A43F0080313635D4B1B6B03F028
:1014C00008037B617B696023FB6102233B6200238D
:1014D0007B620323BB620723FB6207F11C031946EF
:1014E000544801F00BF8544B544A1A60524B4FF0D9
:1014F00000625A60504B00229A604F4B0022DA6023
:101500004D4B4FF480621A614B4B00225A614A4B9B
:1015100000229A61484B0022DA61474B00221A628E
:10152000454B00225A62444800F0E6FB0346002B7C
:1015300001D0FFF743FF7B683F4A9A633E4A7B68CE
:10154000936300220021262000F09FFB262000F05C
:10155000B8FB67E07B681B68394A934262D100237D
:101560003B61334B1B6C324A43F480231364304B92
:101570001B6C03F480233B613B690023FB602C4B15
:101580001B6B2B4A43F008031363294B1B6B03F0BF
:101590000803FB60FB684FF44073FB6102233B626E
:1015A00000237B620323BB620723FB6207F11C035A
:1015B0001946204800F0A2FF224B234A1A60214B13
:1015C0004FF000625A601F4B00229A601D4B0022B0
:1015D000DA601C4B4FF480621A611A4B00225A6188
:1015E000184B00229A61174B0022DA61154B00223A
:1015F0001A62144B00225A62124800F07DFB034627
:10160000002B01D0FFF7DAFE7B680E4A9A630D4A81
:101610007B68936300220021272000F036FB2720FF
:1016200000F04FFB00BF3037BD4680BD0044004096
:1016300000380240000C0240CC02002088600240CA
:10164000004800402C0300202860024080B5A0B074
:1016500000AF786007F16C0300221A605A609A604C
:10166000DA601A6107F110035C22002118463DF090
:1016700079FB7B681B68B3F1A04F4ED14FF48073A8
:101680003B6100237B6607F11003184601F046FB1F
:101690000346002B01D0FFF791FE0023FB60214B96
:1016A0001B6B204A43F0010313631E4B1B6B03F0BB
:1016B0000103FB60FB684FF4E853FB6602233B67C2
:1016C00000237B670323BB670A23FB6707F16C03D7
:1016D0001946154800F012FF4FF40073FB66002313
:1016E0003B6700237B6707F16C0319460E4800F047
:1016F00005FF0C4B5B6B0B4A43F0800353630023E5
:10170000BB60084B5B6C074A43F480435364054B52
:101710005B6C03F48043BB60BB6800BF8037BD4691
:1017200080BD00BF003802400000024080B400AF1E
:1017300000BFFDE780B400AF00BFFDE780B400AF9D
:1017400000BFFDE780B400AF00BFFDE780B400AF8D
:1017500000BFFDE780B400AF00BFBD465DF8047B6D
:10176000704780B400AF00BFBD465DF8047B704792
:1017700080B400AF00BFBD465DF8047B704780B504
:1017800000AF00F063F900BF80BD000080B500AF7E
:10179000024800F049FC00BF80BD00BF2C030020C0
:1017A00080B500AF024800F03FFC00BF80BD00BF25
:1017B000CC02002080B500AF024802F05DFD00BF02
:1017C00080BD00BF4402002080B500AF024802F097
:1017D00053FD00BF80BD00BF8802002080B400AF71
:1017E00001231846BD465DF8047B704780B582B082
:1017F00000AF786039603DF029FB034616221A607D
:101800004FF0FF3318460837BD4680BD80B582B023
:1018100000AF78604FF0FF317868FFF7E7FF00BF57
:10182000FDE780B586B000AFF860B9607A6000234C
:101830007B610AE0AFF300800146BB685A1CBA60C6
:10184000CAB21A707B6901337B617A697B689A42FC
:10185000F0DB7B6818461837BD4680BD80B483B086
:1018600000AF78604FF0FF3318460C37BD465DF887
:10187000047B704780B483B000AF786039603B6808
:101880004FF400525A60002318460C37BD465DF8ED
:10189000047B704780B483B000AF786001231846A2
:1018A0000C37BD465DF8047B704780B485B000AF4F
:1018B000F860B9607A60002318461437BD465DF8B9
:1018C000047B704780B586B000AF7860144A154B32
:1018D000D31A7B617B693B61134B1B68002B02D1E0
:1018E000114B124A1A60104B1A687B6813443A690C
:1018F0009A4207D23DF0AAFA03460C221A604FF032
:10190000FF3309E0084B1B68FB60074B1A687B68D4
:101910001344054A1360FB6818461837BD4680BD5E
:1019200000000220000400009407002008090020A5
:1019300080B400AF064BD3F88830054A43F47003F7
:10194000C2F8883000BFBD465DF8047B704700BF19
:1019500000ED00E0DFF834D00D480E490E4A0023B8
:1019600002E0D458C4500433C4188C42F9D30B4A53
:101970000B4C002301E013600432A242FBD3FFF7BB
:10198000D7FF3DF069FAFFF7F5FA70470000022033
:101990000000002008020020D0D004080802002027
:1019A00004090020FEE7000080B500AF0E4B1B6865
:1019B0000D4A43F4007313600B4B1B680A4A43F44F
:1019C00080631360084B1B68074A43F480731360FD
:1019D000032000F04FF9002000F008F8FFF7F4FCB6
:1019E0000023184680BD00BF003C024080B582B095
:1019F00000AF7860124B1A68124B1B7819464FF4EF
:101A00007A73B3FBF1F3B2FBF3F3184600F067F916
:101A10000346002B01D001230EE07B680F2B0AD870
:101A2000002279684FF0FF3000F02FF9064A7B68FA
:101A30001360002300E0012318460837BD4680BD2F
:101A400000000020080000200400002080B400AF47
:101A5000064B1B781A46064B1B681344044A136056
:101A600000BFBD465DF8047B704700BF0800002042
:101A70009807002080B400AF034B1B681846BD4692
:101A80005DF8047B704700BF9807002080B584B0E4
:101A900000AF7860FFF7EEFFB8607B68FB60FB6823
:101AA000B3F1FF3F05D00A4B1B781A46FB6813447D
:101AB000FB6000BFFFF7DEFF0246BB68D31AFA687F
:101AC0009A42F7D800BF00BF1037BD4680BD00BFA7
:101AD0000800002080B485B000AF78607B6803F018
:101AE0000703FB600C4BDB68BB60BA684FF6FF0373
:101AF0001340BB60FB681A02BB68134343F0BF632B
:101B000043F40033BB60044ABB68D36000BF1437A2
:101B1000BD465DF8047B704700ED00E080B400AF87
:101B2000044BDB681B0A03F007031846BD465DF84B
:101B3000047B704700ED00E080B483B000AF034643
:101B4000FB7197F90730002B0BDBFB7903F01F02C9
:101B5000074997F907305B09012000FA02F241F8C2
:101B6000232000BF0C37BD465DF8047B704700BFE3
:101B700000E100E080B483B000AF03463960FB7140
:101B800097F90730002B0ADB3B68DAB20C4997F96A
:101B900007301201D2B20B4483F800230AE03B68FD
:101BA000DAB20849FB7903F00F03043B1201D2B209
:101BB0000B441A7600BF0C37BD465DF8047B7047B6
:101BC00000E100E000ED00E080B489B000AFF86013
:101BD000B9607A60FB6803F00703FB61FB69C3F13E
:101BE0000703042B28BF0423BB61FB690433062BC6
:101BF00002D9FB69033B00E000237B614FF0FF3219
:101C0000BB6902FA03F3DA43BB681A407B699A4066
:101C10004FF0FF317B6901FA03F3D9437B680B4036
:101C2000134318462437BD465DF8047B7047000017
:101C300080B582B000AF78607B68013BB3F1807FF4
:101C400001D301230FE00A4A7B68013B53600F2157
:101C50004FF0FF30FFF78EFF054B00229A60044BD8
:101C600007221A60002318460837BD4680BD00BF12
:101C700010E000E080B582B000AF78607868FFF7D0
:101C800029FF00BF0837BD4680BD80B586B000AFD4
:101C90000346B9607A60FB7300237B61FFF73EFF68
:101CA00078617A68B9687869FFF78EFF024697F91C
:101CB0000F3011461846FFF75DFF00BF1837BD46CD
:101CC00080BD80B582B000AF0346FB7197F9073045
:101CD0001846FFF731FF00BF0837BD4680BD80B50D
:101CE00082B000AF78607868FFF7A2FF034618461D
:101CF0000837BD4680BD000080B586B000AF786073
:101D000000237B61FFF7B6FE38617B68002B01D1B1
:101D1000012399E07B68002283F834207B6802224B
:101D200083F835207B681B681A687B681B6822F083
:101D300001021A600FE0FFF79DFE02463B69D31ACD
:101D4000052B08D97B6820225A657B68032283F81B
:101D50003520032378E07B681B681B6803F00103D0
:101D6000002BE8D17B681B681B687B617A69384B64
:101D700013407B617B685A687B689B681A437B6869
:101D8000DB681A437B681B691A437B685B691A43EB
:101D90007B689B691A437B68DB691A437B681B6A13
:101DA00013437A6913437B617B685B6A042B07D119
:101DB0007B68DA6A7B681B6B13437A6913437B6128
:101DC0007B681B687A691A607B681B685B697B614A
:101DD0007B6923F007037B617B685B6A7A69134345
:101DE0007B617B685B6A042B17D17B689B6A7A698D
:101DF00013437B617B68DB6A002B0ED0786800F0B0
:101E000001FB0346002B08D07B6840225A657B68A3
:101E1000012283F83520012316E07B681B687A696C
:101E20005A61786800F0B8FA0346FB607B68DB6DA6
:101E30003F229A40FB689A607B6800225A657B6863
:101E4000012283F83520002318461837BD4680BD8F
:101E50003F8010F080B586B000AFF860B9607A605E
:101E60003B600023FB75FB689B6D3B61FB6893F84F
:101E70003430012B01D1022340E0FB68012283F8BA
:101E80003420FB6893F83530DBB2012B2FD1FB688F
:101E9000022283F83520FB6800225A653B687A6885
:101EA000B968F86800F04AFAFB68DB6D3F229A4097
:101EB0003B699A60FB681B681A68FB681B6842F004
:101EC00016021A60FB681B6C002B07D0FB681B68AE
:101ED0001A68FB681B6842F008021A60FB681B68FE
:101EE0001A68FB681B6842F001021A6005E0FB6893
:101EF000002283F834200223FB75FB7D1846183737
:101F0000BD4680BD80B584B000AF78607B689B6DB6
:101F1000FB60FFF7AFFDB8607B6893F83530DBB24C
:101F2000022B08D07B6880225A657B68002283F8E8
:101F30003420012352E07B681B681A687B681B68A9
:101F400022F016021A607B681B685A697B681B685E
:101F500022F080025A617B681B6C002B03D17B68E6
:101F60009B6C002B07D07B681B681A687B681B681A
:101F700022F008021A607B681B681A687B681B687D
:101F800022F001021A6013E0FFF774FD0246BB68FD
:101F9000D31A052B0CD97B6820225A657B68002256
:101FA00083F834207B68032283F83520032315E06F
:101FB0007B681B681B6803F00103002BE4D17B687E
:101FC000DB6D3F229A40FB689A607B68002283F8B1
:101FD00034207B68012283F835200023184610370F
:101FE000BD4680BD80B483B000AF78607B6893F855
:101FF0003530DBB2022B04D07B6880225A65012386
:102000000CE07B68052283F835207B681B681A6822
:102010007B681B6822F001021A60002318460C3707
:10202000BD465DF8047B704780B586B000AF786030
:102030000023BB608E4B1B688E4AA2FB03239B0AC6
:102040007B617B689B6D3B613B691B68FB607B68C8
:10205000DB6D08229A40FB681340002B1AD07B6886
:102060001B681B6803F00403002B13D07B681B68FC
:102070001A687B681B6822F004021A607B68DB6DBB
:1020800008229A403B699A607B685B6D43F00102CD
:102090007B685A657B68DB6D01229A40FB681340C0
:1020A000002B12D07B681B685B6903F08003002B58
:1020B0000BD07B68DB6D01229A403B699A607B689C
:1020C0005B6D43F002027B685A657B68DB6D04221E
:1020D0009A40FB681340002B12D07B681B681B687A
:1020E00003F00203002B0BD07B68DB6D04229A40C7
:1020F0003B699A607B685B6D43F004027B685A65BC
:102100007B68DB6D10229A40FB681340002B43D0A4
:102110007B681B681B6803F00803002B3CD07B68BE
:10212000DB6D10229A403B699A607B681B681B68D4
:1021300003F48023002B18D07B681B681B6803F412
:102140000023002B08D17B681B6C002B24D07B68FC
:102150001B6C786898471FE07B689B6C002B1BD03A
:102160007B689B6C7868984716E07B681B681B68E7
:1021700003F48073002B07D17B681B681A687B68A7
:102180001B6822F008021A607B681B6C002B03D0CE
:102190007B681B6C786898477B68DB6D20229A40CF
:1021A000FB681340002B00F08F807B681B681B6866
:1021B00003F01003002B00F087807B68DB6D20228A
:1021C0009A403B699A607B6893F83530DBB2052B07
:1021D00036D17B681B681A687B681B6822F0160280
:1021E0001A607B681B685A697B681B6822F0800252
:1021F0005A617B681B6C002B03D17B689B6C002BA6
:1022000007D07B681B681A687B681B6822F008028D
:102210001A607B68DB6D3F229A403B699A607B685D
:10222000002283F834207B68012283F835207B6804
:102230001B6D002B7ED07B681B6D7868984779E01A
:102240007B681B681B6803F48023002B1DD07B6810
:102250001B681B6803F40023002B0DD17B685B6CAB
:10226000002B31D07B685B6C786898472CE000BF0E
:1022700000000020B5814E1B7B68DB6B002B23D058
:102280007B68DB6B786898471EE07B681B681B687F
:1022900003F48073002B0FD17B681B681A687B687E
:1022A0001B6822F010021A607B68002283F8342039
:1022B0007B68012283F835207B68DB6B002B03D021
:1022C0007B68DB6B786898477B685B6D002B32D04E
:1022D0007B685B6D03F00103002B22D07B68052235
:1022E00083F835207B681B681A687B681B6822F0BE
:1022F00001021A60BB680133BB607A699A4207D356
:102300007B681B681B6803F00103002BF2D100E01F
:1023100000BF7B68002283F834207B68012283F8A9
:1023200035207B68DB6C002B05D07B68DB6C786824
:10233000984700E000BF1837BD4680BD80B485B027
:1023400000AFF860B9607A603B60FB681B681A6890
:10235000FB681B6822F480221A60FB681B683A68DD
:102360005A60FB689B68402B08D1FB681B687A6841
:102370009A60FB681B68BA68DA6007E0FB681B6854
:10238000BA689A60FB681B687A68DA6000BF143725
:10239000BD465DF8047B704780B485B000AF7860BF
:1023A0007B681B68DBB2103B144AA2FB03231B09AA
:1023B000FB60134AFB6813441B781A467B68DA6596
:1023C000FB68032B09D97B681B6823F47F7323F018
:1023D00003031A1D7B689A6507E07B681B6823F47A
:1023E0007F7323F003037A6893657B689B6D1846BF
:1023F0001437BD465DF8047B704700BFABAAAAAA9C
:102400005039040880B485B000AF78600023FB73B6
:102410007B689B6ABB607B689B69002B1FD1BB6894
:10242000032B56D801A252F823F000BF3D24000828
:102430004F2400083D240008D32400087B68DB6A91
:1024400003F08073002B46D00123FB7343E07B68CD
:10245000DB6AB3F1C07F40D10123FB733DE07B68B1
:102460009B69B3F5005F21D1BB68032B37D801A26C
:1024700052F823F0852400088B24000885240008E6
:102480009D2400080123FB7330E07B68DB6A03F0C6
:102490008073002B25D00123FB7322E07B68DB6A6D
:1024A000B3F1C07F1FD10123FB731CE0BB68022B7B
:1024B00003D9BB68032B03D018E00123FB7315E09D
:1024C0007B68DB6A03F08073002B0ED00123FB7363
:1024D0000BE000BF0AE000BF08E000BF06E000BF5D
:1024E00004E000BF02E000BF00E000BFFB7B184635
:1024F0001437BD465DF8047B704700BF80B489B0D7
:1025000000AF7860396000237B6100233B610023CA
:10251000BB610023FB6165E10122FB6902FA03F361
:102520007B613B681B687A6913403B613A697B6950
:102530009A4240F054813B685B6803F00303012B2F
:1025400005D03B685B6803F00303022B30D17B6846
:102550009B68BB61FB695B00032202FA03F3DB4368
:10256000BA691340BB613B68DA68FB695B0002FA39
:1025700003F3BA691343BB617B68BA699A607B68ED
:102580005B68BB610122FB6902FA03F3DB43BA69B2
:102590001340BB613B685B681B0903F00102FB69E8
:1025A00002FA03F3BA691343BB617B68BA695A60E4
:1025B0003B685B6803F00303032B17D07B68DB6881
:1025C000BB61FB695B00032202FA03F3DB43BA69D8
:1025D0001340BB613B689A68FB695B0002FA03F336
:1025E000BA691343BB617B68BA69DA603B685B68B0
:1025F00003F00303022B23D1FB69DA087B6808325E
:1026000053F82230BB61FB6903F007039B000F22E4
:1026100002FA03F3DB43BA691340BB613B681A69F2
:10262000FB6903F007039B0002FA03F3BA69134343
:10263000BB61FB69DA087B680832B96943F822108C
:102640007B681B68BB61FB695B00032202FA03F332
:10265000DB43BA691340BB613B685B6803F003026C
:10266000FB695B0002FA03F3BA691343BB617B6841
:10267000BA691A603B685B6803F08053002B00F076
:10268000AE800023FB605D4B5B6C5C4A43F480438F
:1026900053645A4B5B6C03F48043FB60FB68584AFD
:1026A000FB699B08023352F82330BB61FB6903F0DE
:1026B00003039B000F2202FA03F3DB43BA691340C2
:1026C000BB617B684F4A934225D07B684E4A934258
:1026D0001FD07B684D4A934219D07B684C4A934285
:1026E00013D07B684B4A93420DD07B684A4A934291
:1026F00007D07B68494A934201D106230CE00723A7
:102700000AE0052308E0042306E0032304E0022393
:1027100002E0012300E00023FA6902F003029200C4
:102720009340BA691343BB613549FB699B08023387
:10273000BA6941F823203A4B1B68BB613B69DB4314
:10274000BA691340BB613B685B6803F48033002BBC
:1027500003D0BA693B691343BB61314ABB6913605B
:102760002F4B5B68BB613B69DB43BA691340BB61BC
:102770003B685B6803F40033002B03D0BA693B6904
:102780001343BB61264ABB695360254B9B68BB6101
:102790003B69DB43BA691340BB613B685B6803F488
:1027A0008013002B03D0BA693B691343BB611C4AF9
:1027B000BB6993601A4BDB68BB613B69DB43BA6959
:1027C0001340BB613B685B6803F40013002B03D02C
:1027D000BA693B691343BB61114ABB69D360FB69AA
:1027E0000133FB61FB690F2B7FF696AE00BF00BF84
:1027F0002437BD465DF8047B704700BF00380240B7
:10280000003801400000024000040240000802407D
:10281000000C024000100240001402400018024068
:10282000003C014080B483B000AF78600B467B80F1
:1028300013467B707B78002B03D07A887B689A6183
:1028400003E07B881A047B689A6100BF0C37BD46A1
:102850005DF8047B7047F0B58FB00AAF78607B6895
:10286000002B01D1012316E17B681B68BB607B68EC
:1028700093F8BD33DBB2002B06D17B68002283F8CE
:10288000BC237868FEF7E2FE7B68032283F8BD2351
:10289000BB68DB6B03F48073002B02D17B680022E2
:1028A0001A617B681B68184602F043FC7B681B6852
:1028B0003B607E686D4606F110040FCC0FC50FCC4F
:1028C0000FC594E8030085E80300331D0ECB38687C
:1028D00002F0CEFB0346002B05D07B68022283F872
:1028E000BD230123D7E07B681B680021184602F056
:1028F00031FC0023FB734AE0FA7B79681346DB0066
:102900009B1A9B000B443D3301221A70FA7B7968B5
:102910001346DB009B1A9B000B443C33FA7B1A7076
:10292000FA7BFB7B98B279681346DB009B1A9B000D
:102930000B44423302461A80FA7B79681346DB0067
:102940009B1A9B000B443F3300221A70FA7B796874
:102950001346DB009B1A9B000B44443300221A6091
:10296000FA7B79681346DB009B1A9B000B444833C3
:1029700000221A60FA7B79681346DB009B1A9B00E1
:102980000B44503300221A60FB7B0133FB73FA7B4C
:102990007B685B689A42AFD30023FB7344E0FA7B09
:1029A00079681346DB009B1A9B000B4403F2FD136E
:1029B00000221A70FA7B79681346DB009B1A9B0091
:1029C0000B4403F5FE73FA7B1A70FA7B79681346A1
:1029D000DB009B1A9B000B4403F2FF1300221A70CA
:1029E000FA7B79681346DB009B1A9B000B4403F5C6
:1029F000017300221A60FA7B79681346DB009B1A88
:102A00009B000B4403F5027300221A60FA7B79687D
:102A10001346DB009B1A9B000B4403F50473002252
:102A20001A60FB7B0133FB73FA7B7B685B689A421D
:102A3000B5D37B681B683B607E686D4606F1100469
:102A40000FCC0FC50FCC0FC594E8030085E8030039
:102A5000331D0ECB386802F0A7FB0346002B05D0D0
:102A60007B68022283F8BD23012314E07B680022E7
:102A700083F838207B68012283F8BD237B685B6A7A
:102A8000012B02D1786800F00AF87B681B681846B1
:102A900002F049FD002318461437BD46F0BD80B44E
:102AA00085B000AF78607B681B68FB607B680122A3
:102AB000C3F8FC237B68002283F8F423FB689B693E
:102AC00043F00062FB689A61FB685B6D43F08053E2
:102AD00043F00303FA685365002318461437BD46D4
:102AE0005DF8047B7047000080B584B000AF78606B
:102AF00039607B68002B01D10123CCE0684B1B6857
:102B000003F00F033A689A420CD9654B3A68D2B287
:102B10001A70634B1B6803F00F033A689A4201D0A6
:102B20000123B8E07B681B6803F00203002B20D070
:102B30007B681B6803F00403002B05D0594B9B688E
:102B4000584A43F4E05393607B681B6803F0080322
:102B5000002B05D0534B9B68524A43F4604393606B
:102B6000504B9B6823F0F0027B689B684D491343F0
:102B70008B607B681B6803F00103002B44D07B68EB
:102B80005B68012B07D1474B1B6803F40033002B14
:102B900019D101237FE07B685B68022B03D07B683F
:102BA0005B68032B07D13F4B1B6803F00073002BBE
:102BB00009D101236FE03B4B1B6803F00203002B9C
:102BC00001D1012367E0374B9B6823F003027B6848
:102BD0005B68344913438B60FEF74CFFF8600AE0F2
:102BE000FEF748FF0246FB68D31A41F2883293424F
:102BF00001D903234FE02B4B9B6803F00C027B6849
:102C00005B689B009A42EBD1254B1B6803F00F03D6
:102C10003A689A420CD2224B3A68D2B21A70204BD0
:102C20001B6803F00F033A689A4201D0012332E097
:102C30007B681B6803F00403002B08D0194B9B68CA
:102C400023F4E0527B68DB68164913438B607B6892
:102C50001B6803F00803002B09D0124B9B6823F478
:102C600060427B681B69DB000E4913438B6000F0F8
:102C70007FFB02460B4B9B681B0903F00F030A49BD
:102C8000CB5C22FA03F3094A1360094B1B68184610
:102C9000FEF7ACFE002318461037BD4680BD00BFCE
:102CA000003C02400038024038390408000000208F
:102CB0000400002080B400AF034B1B681846BD46DB
:102CC0005DF8047B704700BF0000002080B500AFB6
:102CD000FFF7F0FF0246054B9B689B0A03F00703D2
:102CE0000349CB5C22FA03F3184680BD003802404A
:102CF0004839040880B500AFFFF7DCFF0246054BFA
:102D00009B685B0B03F007030349CB5C22FA03F3D8
:102D1000184680BD003802404839040880B58CB0A0
:102D200000AF786000237B6200233B620023FB61DD
:102D30000023BB6100237B6100233B610023FB6018
:102D40000023FB620023BB627B681B6803F0010366
:102D5000002B10D06F4BD3F88C3023F0C0627B680F
:102D60009B6B6C491343C1F88C307B689B6B002BC9
:102D700001D10123FB627B681B6803F00203002B77
:102D800010D0644BD3F88C3023F0C0527B68DB6BDF
:102D900060491343C1F88C307B68DB6B002B01D199
:102DA0000123FB627B681B6803F00403002B17D030
:102DB000584BD3F88C3023F440127B681B6B554979
:102DC0001343C1F88C307B681B6BB3F5801F01D1B6
:102DD0000123FB627B681B6B002B01D10123BB62CB
:102DE0007B681B6803F00803002B17D0494BD3F80E
:102DF0008C3023F440027B685B6B46491343C1F877
:102E00008C307B685B6BB3F5800F01D10123FB62D3
:102E10007B685B6B002B01D10123BB627B681B6865
:102E200003F02003002B00F08A800023BB60394BA5
:102E30001B6C384A43F080531364364B1B6C03F011
:102E40008053BB60BB68344B1B68334A43F48073C8
:102E50001360FEF70FFE786208E0FEF70BFE0246F5
:102E60007B6AD31A022B01D9032378E22A4B1B6811
:102E700003F48073002BF0D0264B1B6F03F44073D8
:102E80003B623B6A002B2FD07B681B6C03F44073C2
:102E90003A6A9A4228D01F4B1B6F23F440733B625F
:102EA0001E4B01221A601D4B00221A60194A3B6A10
:102EB0001367184B1B6F03F00103012B14D1FEF7AE
:102EC000D9FD78620AE0FEF7D5FD02467B6AD31A87
:102ED00041F28832934201D9032340E20D4B1B6F2C
:102EE00003F00203002BEED07B681B6C03F44073ED
:102EF000B3F5407F14D1074B9B6823F4F8127B682D
:102F00001B6C23F0704323F44073024913438B601E
:102F10000CE000BF0038024000700040400E474205
:102F20004A4B9B68494A23F4F8139360474B1A6F46
:102F30007B681B6CC3F30B03444913430B677B682B
:102F40001B6803F01003002B04D07B6893F8582013
:102F50003F4B1A607B681B6803F08003002B0AD08C
:102F60003A4BD3F8943023F440027B68DB6C37494A
:102F70001343C1F894307B681B6803F04003002BB7
:102F80000AD0324BD3F8943023F080627B689B6C7C
:102F90002E491343C1F894307B681B6803F4807397
:102FA000002B11D0294BD3F8943023F000627B68BA
:102FB0005B6D26491343C1F894307B685B6DB3F1B8
:102FC000006F01D10123BB627B681B6803F40073AF
:102FD000002B0AD01D4BD3F8943023F080527B682D
:102FE0005B6C1A491343C1F894307B681B6803F487
:102FF0008063002B11D0154BD3F8943023F000528E
:103000007B681B6D11491343C1F894307B681B6DBD
:10301000B3F1005F01D10123FB62FB6A012B05D0F4
:103020007B681B68B3F5006F40F0FF80094B0022FE
:103030001A60FEF71FFD78620EE0FEF71BFD0246E8
:103040007B6AD31A022B07D9032388E10038024098
:10305000E0114742680047427E4B1B6803F0006363
:10306000002BEAD17B681B6803F00103002B03D01F
:103070007B689B6B002B09D07B681B6803F0020305
:10308000002B28D07B68DB6B002B24D1714BD3F84D
:1030900084301B0C03F0030301335B00FB616D4BB9
:1030A000D3F884301B0E03F00F03BB617B685A68B2
:1030B0007B689B689B011A43FB695B08013B1B040F
:1030C0001A43BB691B061A437B685B691B0761498E
:1030D0001343C1F884307B681B6803F00403002BA2
:1030E00004D07B681B6BB3F5801F0AD07B681B681C
:1030F00003F00803002B35D07B685B6BB3F5800FC2
:1031000030D1544BD3F884301B0C03F0030301334C
:103110005B00FB614F4BD3F884301B0F03F00703B8
:103120007B617B685A687B689B689B011A43FB69DB
:103130005B08013B1B041A437B681B691B061A438F
:103140007B691B0743491343C1F88430414BD3F8D3
:103150008C3023F01F027B689B6A013B3D4913437F
:10316000C1F88C307B681B6803F48063002B29D086
:103170007B681B6DB3F1005F24D1364BD3F88430EC
:103180001B0C03F0030301335B00BB61314BD3F82D
:1031900084301B0F03F007037B617B685A687B68F0
:1031A0009B689B011A437B68DB685B08013B1B043F
:1031B0001A43BB691B061A437B691B072549134346
:1031C000C1F884307B681B6803F40063002B16D0C1
:1031D0007B685A687B689B689B011A437B68DB6845
:1031E0005B08013B1B041A437B681B691B061A43DF
:1031F0007B685B691B0717491343C1F88430164B82
:1032000001221A60FEF736FC786208E0FEF732FC15
:1032100002467B6AD31A022B01D903239FE00D4B90
:103220001B6803F00063002BF0D0BB6A012B40F059
:1032300095800A4B00221A60FEF71CFC78620FE0B2
:10324000FEF718FC02467B6AD31A022B08D9032327
:1032500085E000BF003802406800474270004742E6
:10326000414B1B6803F00053B3F1005FE8D07B686B
:103270001B6803F00403002B03D07B681B6B002B3F
:1032800009D07B681B6803F00803002B2BD07B68F8
:103290005B6B002B27D1344BD3F888301B0C03F029
:1032A000030301335B003B617B689A697B68DB69E0
:1032B0009B011A433B695B08013B1B041A437B6873
:1032C0005B6A1B0628491343C1F88830264BD3F8A4
:1032D0008C3023F4F8527B68DB6A013B1B022249E5
:1032E0001343C1F88C307B681B6803F48073002B98
:1032F0001DD07B685B6DB3F1006F18D11A4BD3F80A
:1033000088301B0E03F00F03FB607B689A697B68B3
:10331000DB699B011A437B681B6A5B08013B1B044A
:103320001A43FB681B0610491343C1F888300F4B42
:1033300001221A60FEF79EFB786208E0FEF79AFB16
:1033400002467B6AD31A022B01D9032307E0064BFE
:103350001B6803F00053B3F1005FEFD10023184660
:103360003037BD4680BD00BF003802407000474284
:103370002DE9B04FAEB000AF0023C7F8AC3000234A
:10338000C7F8B4300023C7F8A8300023C7F8A4302A
:103390000023C7F8B030CB4B9B6803F00C030C2B19
:1033A00000F2068201A252F823F000BFE1330008C8
:1033B000B1370008B1370008B1370008E933000819
:1033C000B1370008B1370008B1370008F133000801
:1033D000B1370008B1370008B1370008E1350008FF
:1033E000B94BC7F8B030E7E1B84BC7F8B030E3E10C
:1033F000B44B5B6803F03F03C7F8AC30B14B5B687C
:1034000003F48003002B71D0AE4B5B689B09002254
:10341000C7F89830C7F89C20D7F89830C3F3080352
:10342000C7F890300023C7F89430D7E924452246E6
:103430002B464FF000004FF00001590141EAD261E4
:10344000500102460B462146511A3964294663EB66
:1034500001037B644FF000024FF00003D7E91089AD
:1034600049468B01414643EA916341468A01414600
:10347000511AB963494663EB0103FB634FF0000245
:103480004FF00003D7E90E894946CB00414643EA95
:1034900051734146CA0010461946034622469B18FE
:1034A0003B632B460A4642EB03037B634FF000026B
:1034B0004FF00003D7E90C4529464B02214643EA69
:1034C000D15321464A0210461946D7F8AC300022A3
:1034D000C7F88830C7F88C20D7E92223FDF7A4FB72
:1034E00002460B461346C7F8B43067E0754B5B687D
:1034F0009B090022C7F88030C7F88420D7F88030B5
:10350000C3F30803BB670023FB67D7E91E452246C8
:103510002B464FF000004FF00001590141EAD26103
:10352000500102460B462146511AB962294663EB07
:103530000103FB624FF000024FF00003D7E90A8954
:1035400049468B01414643EA916341468A0141461F
:10355000B2EB010A494663EB010B4FF000024FF05A
:1035600000034FEACB0343EA5A734FEACA0292467A
:103570009B4623461AEB03033B622B464BEB0303AC
:103580007B624FF000024FF00003D7E9084529465F
:103590008B02214643EA915321468A02104619467E
:1035A000D7F8AC3000223B677A67D7E91C23FDF7D8
:1035B0003BFB02460B461346C7F8B430414B5B68F1
:1035C0001B0C03F0030301335B00C7F8A830D7F8E6
:1035D000B420D7F8A830B2FBF3F3C7F8B030EBE073
:1035E000384B5B6803F03F03C7F8AC30354B5B6882
:1035F00003F48003002B6BD0324B5B689B090022E5
:10360000BB66FA66BB6EC3F308033B6600237B66AA
:10361000D7E9184522462B464FF000004FF0000135
:10362000590141EAD261500102460B462146511A26
:10363000B961294663EB0103FB614FF000024FF0D3
:103640000003D7E906AB59468B01514643EA916323
:1036500051468A015146B2EB0108594663EB010914
:103660004FF000024FF000034FEAC90343EA5873DA
:103670004FEAC80290469946234618EB03033B6184
:103680002B4649EB03037B614FF000024FF0000330
:10369000D7E9044529464B02214643EAD153214646
:1036A0004A0210461946D7F8AC300022BB65FA65CD
:1036B000D7E91623FDF7B8FA02460B461346C7F8BA
:1036C000B43065E0003802400024F40000127A00B3
:1036D0003D4B5B689B09002218461146C0F3080366
:1036E0003B6500237B65D7E9148942464B464FF082
:1036F00000004FF00001590141EAD2615001024639
:103700000B464146511AB960494663EB0103FB6021
:103710004FF000024FF00003D7E902AB59468B018E
:10372000514643EA916351468A015146541A59461B
:1037300063EB01054FF000024FF00003EB0043EA9A
:103740005473E20014461D464346E3183B604B4663
:1037500045EB03037B604FF000024FF00003D7E915
:10376000004529468B02214643EA915321468A02AD
:1037700010461946D7F8AC300022BB64FA64D7E98A
:103780001223FDF751FA02460B461346C7F8B43030
:103790000D4B5B681B0F03F00703C7F8A430D7F885
:1037A000B420D7F8A430B2FBF3F3C7F8B03003E08D
:1037B000064BC7F8B03000BFD7F8B0301846B8375E
:1037C000BD46BDE8B08F00BF003802400024F400C1
:1037D00080B586B000AF78607B68002B01D10123F3
:1037E0008DE27B681B6803F00103002B00F08380EF
:1037F000944B9B6803F00C03042B19D0914B9B68EE
:1038000003F00C03082B06D18E4B5B6803F4800396
:10381000B3F5800F0CD08B4B9B6803F00C030C2B83
:1038200012D1884B5B6803F48003B3F5800F0BD192
:10383000844B1B6803F40033002B5BD07B685B6810
:10384000002B57D101235AE27B685B68B3F5803FB8
:1038500006D17C4B1B687B4A43F4803313601DE028
:103860007B685B68B3F5A02F0CD1764B1B68754A5B
:1038700043F480231360734B1B68724A43F4803314
:1038800013600BE06F4B1B686E4A23F480331360A8
:103890006C4B1B686B4A23F4802313607B685B6866
:1038A000002B13D0FEF7E6F8386108E0FEF7E2F8E7
:1038B00002463B69D31A642B01D903231FE2614BF3
:1038C0001B6803F40033002BF0D014E0FEF7D2F8AD
:1038D000386108E0FEF7CEF802463B69D31A642B44
:1038E00001D903230BE2574B1B6803F40033002B71
:1038F000F0D100E000BF7B681B6803F00203002BDF
:103900006FD0504B9B6803F00C03002B17D04D4B2E
:103910009B6803F00C03082B05D14A4B5B6803F44A
:103920008003002B0BD0474B9B6803F00C030C2B40
:103930001CD1444B5B6803F48003002B16D1414B30
:103940001B6803F00203002B05D07B68DB68012BAA
:1039500001D00123D3E13B4B1B6823F0F8027B68C5
:103960001B69DB00374913430B603AE07B68DB6877
:10397000002B20D0344B01221A60FEF77BF838610F
:1039800008E0FEF777F802463B69D31A022B01D90B
:103990000323B4E12B4B1B6803F00203002BF0D090
:1039A000284B1B6823F0F8027B681B69DB00254964
:1039B00013430B6015E0244B00221A60FEF75AF8FF
:1039C000386108E0FEF756F802463B69D31A022B2D
:1039D00001D9032393E11B4B1B6803F00203002B67
:1039E000F0D17B681B6803F00803002B36D07B689E
:1039F0005B69002B16D0154B01221A60FEF73AF8CE
:103A0000386108E0FEF736F802463B69D31A022B0C
:103A100001D9032373E10B4B5B6F03F00203002B0F
:103A2000F0D01BE0094B00221A60FEF723F8386142
:103A30000EE0FEF71FF802463B69D31A022B07D9A6
:103A400003235CE10038024000004742800E4742F9
:103A50008A4B5B6F03F00203002BEAD17B681B6883
:103A600003F00403002B00F097800023FB75834BC9
:103A70001B6C03F08053002B0FD10023BB607F4BE6
:103A80001B6C7E4A43F0805313647C4B1B6C03F029
:103A90008053BB60BB680123FB75794B1B6803F443
:103AA0008073002B18D1764B1B68754A43F48073E2
:103AB0001360FDF7DFFF386108E0FDF7DBFF02462A
:103AC0003B69D31A022B01D9032318E16C4B1B6805
:103AD00003F48073002BF0D07B689B68012B06D128
:103AE000664B1B6F654A43F0010313671CE07B685C
:103AF0009B68052B0CD1614B1B6F604A43F004039C
:103B000013675E4B1B6F5D4A43F0010313670BE0C5
:103B10005A4B1B6F594A23F001031367574B1B6F16
:103B2000564A23F0040313677B689B68002B15D06B
:103B3000FDF7A0FF38610AE0FDF79CFF02463B69F4
:103B4000D31A41F28832934201D90323D7E04B4B79
:103B50001B6F03F00203002BEED014E0FDF78AFF89
:103B600038610AE0FDF786FF02463B69D31A41F24D
:103B70008832934201D90323C1E0404B1B6F03F00D
:103B80000203002BEED1FB7D012B05D13B4B1B6CBF
:103B90003A4A23F0805313647B689B69002B00F042
:103BA000AD80364B9B6803F00C03082B60D07B681C
:103BB0009B69022B45D1334B00221A60FDF75AFF57
:103BC000386108E0FDF756FF02463B69D31A022B25
:103BD00001D9032393E0294B1B6803F00073002BEA
:103BE000F0D17B68DA697B681B6A1A437B685B6A81
:103BF0009B011A437B689B6A5B08013B1B041A43C9
:103C00007B68DB6A1B061A437B681B6B1B071B491F
:103C100013434B601B4B01221A60FDF72BFF3861E9
:103C200008E0FDF727FF02463B69D31A022B01D9B2
:103C3000032364E0114B1B6803F00073002BF0D0EA
:103C40005CE0104B00221A60FDF714FF386108E0B9
:103C5000FDF710FF02463B69D31A022B01D903235B
:103C60004DE0064B1B6803F00073002BF0D145E0DC
:103C70007B689B69012B07D1012340E0003802409B
:103C800000700040600047421F4B5B68FB607B6830
:103C90009B69012B30D0FB6803F480027B68DB69F1
:103CA0009A4229D1FB6803F03F027B681B6A9A4263
:103CB00022D1FA6847F6C07313407A68526A9201BB
:103CC000934219D1FB6803F440327B689B6A5B081E
:103CD000013B1B049A420FD1FB6803F070627B68C2
:103CE000DB6A1B069A4207D1FB6803F0E0427B685F
:103CF0001B6B1B079A4201D0012300E000231846EA
:103D00001837BD4680BD00BF0038024080B582B084
:103D100000AF78607B68002B01D1012383E07B68D2
:103D20005B7FDBB2002B05D17B6800221A777868B5
:103D3000FDF772FB7B6802225A777B681B68CA22F8
:103D40005A627B681B6853225A62786800F097F8C1
:103D50000346002B08D07B681B68FF225A627B68F1
:103D600004225A7701235EE07B681B689B687A68AF
:103D7000126823F4E00323F0400393607B681B6820
:103D800099687B685A687B681B691A437B685B6922
:103D90001A437B681B680A439A607B681B687A68D1
:103DA000D2681A617B681B6819697B689B681A0472
:103DB0007B681B680A431A617B681B68DA687B684A
:103DC0001B6822F08002DA607B681B689B6803F046
:103DD0002003002B0ED1786800F029F80346002B51
:103DE00008D07B681B68FF225A627B6804225A77DE
:103DF000012318E07B681B681A6C7B681B6822F43F
:103E000080221A647B681B68196C7B689A697B68DE
:103E10001B680A431A647B681B68FF225A627B682E
:103E200001225A77002318460837BD4680BD80B569
:103E300084B000AF78600023FB607B681B68DA68A1
:103E40007B681B6822F0A002DA60FDF713FEF860C1
:103E500009E0FDF70FFE0246FB68D31AB3F57A7F3F
:103E600001D9032307E07B681B68DB6803F02003AC
:103E7000002BEED0002318461037BD4680BD80B51C
:103E800084B000AF78600023FB607B681B68DB6850
:103E900003F04003002B19D17B681B684FF0FF3201
:103EA000DA60FDF7E7FDF86009E0FDF7E3FD0246A3
:103EB000FB68D31AB3F57A7F01D9032307E07B6847
:103EC0001B68DB6803F04003002BEED0002318468C
:103ED0001037BD4680BD80B582B000AF78607B688A
:103EE000002B01D101233FE07B6893F83D30DBB22A
:103EF000002B06D17B68002283F83C207868FDF710
:103F0000B5FA7B68242283F83D207B681B68DA6859
:103F10007B681B6822F40052DA60786800F034FE97
:103F20007B681B681A697B681B6822F490421A61DF
:103F30007B681B685A697B681B6822F02A025A61F9
:103F40007B681B68DA687B681B6842F40052DA60A1
:103F50007B6800221A647B68202283F83D207B68FE
:103F6000202283F83E20002318460837BD4680BD36
:103F700080B58AB002AFF860B9603B601346FB8041
:103F800000237B61FB6893F83D30DBB2202B7CD1B2
:103F9000BB68002B02D0FB88002B01D1012375E008
:103FA000FB6893F83C30012B01D102236EE0FB68E3
:103FB000012283F83C20FB6800221A64FB6821225E
:103FC00083F83D20FDF756FD7861FB68FA889A84F6
:103FD000FB68FA88DA84FB689B68B3F5805F08D1D8
:103FE000FB681B69002B04D10023FB61BB68BB612C
:103FF00003E0BB68FB610023BB61FB68002283F820
:104000003C202AE03B6800937B6900228021F8680D
:1040100000F0B6FB0346002B01D0032336E0FB691A
:10402000002B0BD1BB691B881A46FB681B68C2F3C7
:1040300008025A60BB690233BB6107E0FB691A786A
:10404000FB681B685A60FB690133FB61FB68DB8C12
:104050009BB2013B9AB2FB68DA84FB68DB8C9BB2B3
:10406000002BCFD13B6800937B6900224021F86888
:1040700000F086FB0346002B01D0032306E0FB681B
:10408000202283F83D20002300E002231846203739
:10409000BD4680BD80B58AB002AFF860B9603B60B4
:1040A0001346FB8000237B61FB6893F83E30DBB254
:1040B000202B40F08C80BB68002B02D0FB88002BAB
:1040C00001D1012384E0FB6893F83C30012B01D13E
:1040D00002237DE0FB68012283F83C20FB6800227C
:1040E0001A64FB68222283F83E20FB6800221A63D0
:1040F000FDF7C0FC7861FB68FA889A85FB68FA884E
:10410000DA85FB689B68B3F5805F08D1FB681B69A3
:10411000002B04D10023FB61BB68BB6103E0BB68DB
:10412000FB610023BB61FB68002283F83C2043E075
:104130003B6800937B6900222021F86800F020FB97
:104140000346002B01D0032342E0FB69002B0CD176
:10415000FB681B685B689BB2C3F308039AB2BB6938
:104160001A80BB690233BB611FE0FB689B68B3F533
:10417000805F07D0FB689B68002B0AD1FB681B6936
:10418000002B06D1FB681B685B68DAB2FB691A700A
:1041900008E0FB681B685B68DBB203F07F03DAB200
:1041A000FB691A70FB690133FB61FB68DB8D9BB215
:1041B000013B9AB2FB68DA85FB68DB8D9BB2002B72
:1041C000B6D1FB68202283F83E20002300E00223C2
:1041D00018462037BD4680BD80B586B000AFF86078
:1041E000B9601346FB80FB6893F83E30DBB2202BAE
:1041F0003CD1BB68002B02D0FB88002B01D10123EE
:1042000035E0FB6893F83C30012B01D102232EE00E
:10421000FB68012283F83C20FB6801221A63FB88BB
:104220001A46B968F86800F0F5FA0346FB75FB7D9D
:10423000002B19D1FB681B6B012B13D100233B61B1
:10424000FB681B681B683B61FB681B685B683B6124
:104250003B69FB681B68DA68FB681B6842F0100268
:10426000DA6001E00123FB75FB7D00E002231846C4
:104270001837BD4680BD000080B58AB000AF7860B9
:104280007B681B681B687B627B681B68DB683B6222
:104290007B681B685B69FB610023BB6100237B615A
:1042A0007B6A03F00F03BB61BB69002B0DD17B6AF6
:1042B00003F02003002B08D03B6A03F02003002BFF
:1042C00003D0786800F0C9FB7CE1BB69002B00F0EB
:1042D000B180FB6903F00103002B05D13B6A03F4B5
:1042E0009073002B00F0A6807B6A03F00103002B83
:1042F0000AD03B6A03F48073002B05D07B681B6CEB
:1043000043F001027B681A647B6A03F00403002B0C
:104310000AD0FB6903F00103002B05D07B681B6CFE
:1043200043F002027B681A647B6A03F00203002BED
:104330000AD0FB6903F00103002B05D07B681B6CDE
:1043400043F004027B681A647B6A03F00803002BC5
:104350000FD03B6A03F02003002B04D1FB6903F06C
:104360000103002B05D07B681B6C43F008027B68BF
:104370001A647B681B6C002B00F01F817B6A03F0C2
:104380002003002B07D03B6A03F02003002B02D050
:10439000786800F062FB7B681B685B6903F0400390
:1043A000402B0CBF01230023DBB27B617B681B6CBD
:1043B00003F00803002B02D17B69002B31D0786811
:1043C00000F0A2FA7B681B685B6903F04003402B96
:1043D00023D17B681B685A697B681B6822F0400206
:1043E0005A617B689B6B002B13D07B689B6B774A71
:1043F0001A657B689B6B1846FDF7F4FD0346002B9E
:1044000016D07B689B6B1B6D7A68926B1046984741
:104410000EE0786800F0FAF80AE0786800F0F6F844
:1044200006E0786800F0F2F87B6800221A64C4E0C5
:1044300000BFC2E07B681B6B012B40F0A2807B6A4F
:1044400003F01003002B00F09C803B6A03F0100384
:10445000002B00F096800023FB607B681B681B68C4
:10446000FB607B681B685B68FB60FB687B681B68A4
:104470005B6903F04003402B4FD17B689B6B1B684B
:104480005B683B823B8A002B00F099807B689B8DA8
:104490003A8A9A4280F093807B683A8ADA857B6810
:1044A0009B6BDB69B3F5807F2BD07B681B68DA6878
:1044B0007B681B6822F48072DA607B681B685A692B
:1044C0007B681B6822F001025A617B681B685A698D
:1044D0007B681B6822F040025A617B68202283F8C7
:1044E0003E207B6800221A637B681B68DA687B6861
:1044F0001B6822F01002DA607B689B6B1846FDF7A0
:1045000001FD7B689A8D7B68DB8D9BB2D31A9BB2D1
:104510001946786839F08CF951E07B689A8D7B6890
:10452000DB8D9BB2D31A7B827B68DB8D9BB2002B29
:1045300047D07B8A002B44D07B681B68DA687B6895
:104540001B6822F49072DA607B681B685A697B688A
:104550001B6822F001025A617B68202283F83E200A
:104560007B6800221A637B681B68DA687B681B68BB
:1045700022F01002DA607B8A1946786839F058F91F
:104580001FE07B6A03F08003002B08D03B6A03F036
:104590008003002B03D0786800F0F7F912E07B6A03
:1045A00003F04003002B0DD03B6A03F04003002BC7
:1045B00008D0786800F039FA04E000BF02E000BFDC
:1045C00000E000BF2837BD4680BD00BF634900083A
:1045D00080B483B000AF786000BF0C37BD465DF893
:1045E000047B704780B483B000AF786000BF0C37A5
:1045F000BD465DF8047B704780B483B000AF78603F
:1046000000BF0C37BD465DF8047B704780B483B0B3
:1046100000AF786000BF0C37BD465DF8047B704783
:1046200080B584B000AF78607B689B6BFB607B6873
:104630001B681B6803F48073002B2AD1FB680022DF
:10464000DA85FB681B68DA68FB681B6822F48072F5
:10465000DA60FB681B685A69FB681B6822F001027C
:104660005A61FB681B685A69FB681B6822F04002AC
:104670005A61FB68202283F83E20FB681B6B012BEC
:1046800007D1FB681B68DA68FB681B6822F0100220
:10469000DA60FB681B6B012B06D1FB689B8D19460A
:1046A000F86839F0C5F802E0F868FFF79BFF00BF33
:1046B0001037BD4680BD80B584B000AF78607B68A0
:1046C0009B6BFB60FB681B6B012B08D1FB689B8D10
:1046D0005B089BB21946F86839F0AAF802E0F8685E
:1046E000FFF78AFF00BF1037BD4680BD80B584B09C
:1046F00000AF78600023FB607B689B6BBB60BB688E
:104700001B685B6903F08003802B0CBF012300232F
:10471000DBB2FB60BB6893F83D30DBB2212B08D1E4
:10472000FB68002B05D0BB680022DA84B86800F073
:10473000D5F8BB681B685B6903F04003402B0CBFD6
:1047400001230023DBB2FB60BB6893F83E30DBB291
:10475000222B08D1FB68002B05D0BB680022DA852C
:10476000B86800F0D1F8BB681B6C43F01002BB685E
:104770001A64B868FFF74AFF00BF1037BD4680BD16
:1047800080B584B000AFF860B9603B601346FB7140
:104790002CE0BB69B3F1FF3F28D0BB69002B07D0E9
:1047A000FDF768F902463B68D31ABA699A421DD2EE
:1047B000FB681B68DA68FB681B6822F4D072DA6059
:1047C000FB681B685A69FB681B6822F001025A618A
:1047D000FB68202283F83D20FB68202283F83E20DE
:1047E000FB68002283F83C2003230FE0FB681B6872
:1047F0001A68BB681340BA689A420CBF01230023B1
:10480000DBB21A46FB799A42C3D000231846103710
:10481000BD4680BD80B586B000AFF860B960134674
:10482000FB80BA68FB689A62FB68FA889A85FB6825
:1048300000221A64FB68222283F83E20FB689B6BEF
:10484000234ADA63FB689B6B224A1A64FB689B6B02
:10485000214ADA64FB689B6B00221A6507F10803A2
:104860007B61FB68986BFB681B68043319467B69A6
:104870001A68FB88FDF7EEFA00233B61FB681B68B2
:104880001B683B61FB681B685B683B613B69FB68BD
:10489000002283F83C20FB681B68DA68FB681B6811
:1048A00042F48072DA60FB681B685A69FB681B6817
:1048B00042F001025A61FB681B685A69FB681B6879
:1048C00042F040025A61002318461837BD4680BDA9
:1048D00021460008B7460008ED46000880B483B0C2
:1048E00000AF78607B681B68DA687B681B6822F021
:1048F000C002DA607B68202283F83D2000BF0C37BD
:10490000BD465DF8047B704780B483B000AF78602B
:104910007B681B68DA687B681B6822F49072DA6037
:104920007B681B685A697B681B6822F001025A6128
:104930007B681B6B012B07D17B681B68DA687B687F
:104940001B6822F01002DA607B68202283F83E2088
:104950007B6800221A6300BF0C37BD465DF8047BFC
:10496000704780B584B000AF78607B689B6BFB605C
:10497000FB680022DA85FB680022DA84F868FFF71A
:1049800045FE00BF1037BD4680BD80B485B000AF86
:1049900078607B6893F83D30DBB2212B3ED17B6899
:1049A0009B68B3F5805F14D17B681B69002B10D125
:1049B0007B681B6AFB60FB681B881A467B681B6868
:1049C000C2F308025A607B681B6A9A1C7B681A62F1
:1049D00008E07B681B6A591C7A6811621A787B6848
:1049E0001B685A607B68DB8C9BB2013B9BB27A6888
:1049F0001946D184002B0FD17B681B68DA687B686D
:104A00001B6822F08002DA607B681B68DA687B68CA
:104A10001B6842F04002DA60002300E002231846DF
:104A20001437BD465DF8047B704780B582B000AF97
:104A300078607B681B68DA687B681B6822F040023C
:104A4000DA607B68202283F83D207868FFF7C0FD9C
:104A5000002318460837BD4680BD80B584B000AF3E
:104A600078607B6893F83E30DBB2222B40F0878081
:104A70007B689B68B3F5805F17D17B681B69002B4F
:104A800013D10023FB607B689B6ABB607B681B685B
:104A90005B689BB2C3F308039AB2BB681A807B6859
:104AA0009B6A9A1C7B689A6226E07B689B6AFB6023
:104AB0000023BB607B689B68B3F5805F07D07B6891
:104AC0009B68002B0AD17B681B69002B06D17B6891
:104AD0001B685B68DAB2FB681A7008E07B681B68C9
:104AE0005B68DBB203F07F03DAB2FB681A707B68A5
:104AF0009B6A5A1C7B689A627B68DB8D9BB2013B88
:104B00009BB27A681946D185002B36D17B681B6829
:104B1000DA687B681B6822F02002DA607B681B6819
:104B2000DA687B681B6822F48072DA607B681B6835
:104B30005A697B681B6822F001025A617B68202257
:104B400083F83E207B681B6B012B0ED17B681B68B2
:104B5000DA687B681B6822F01002DA607B689B8D44
:104B60001946786838F064FE02E07868FFF73AFD8D
:104B70007B6800221A63002302E0002300E0022386
:104B800018461037BD4680BD2DE9B04FC0B000AF0C
:104B9000C7F8F400D7F8F4301B681B6923F44050C1
:104BA000D7F8F430D968D7F8F4301A6840EA01032E
:104BB0001361D7F8F4309A68D7F8F4301B691A43B8
:104BC000D7F8F4305B691A43D7F8F430DB69134344
:104BD000C7F8F830D7F8F4301B68DB6823F41641C7
:104BE00021F00C01D7F8F4301A68D7F8F8300B43ED
:104BF000D360D7F8F4301B685B6923F44070D7F8B2
:104C0000F4309969D7F8F4301A6840EA0103536127
:104C1000D7F8F4301A688F4B9A4205D0D7F8F430A1
:104C20001A688D4B9A4204D1FEF764F8C7F8FC006D
:104C300003E0FEF74BF8C7F8FC00D7F8F430DB6967
:104C4000B3F5004F40F00C81D7F8FC300022C7F8D4
:104C5000E830C7F8EC20D7E93A4522462B469118B0
:104C6000B9655B41FB65D7E91623214612EB0108C4
:104C7000294643EB01094FF000024FF000034FEAD1
:104C8000C90343EA58734FEAC8029046994623463F
:104C900018EB0303C7F8E0302B4649EB0303C7F8D2
:104CA000E430D7F8F4305B680022C7F8D830C7F892
:104CB000DC20D7E936120B46DB183B65134642EB86
:104CC00003037B65D7E91423D7E93801FBF7ACFF71
:104CD00002460B46614BA3FB02235B091C01D7F87C
:104CE000FC300022C7F8D030C7F8D420D7E9348987
:104CF00042464B469118B9645B41FB64D7E91223E5
:104D0000414612EB010A494643EB010B4FF000020A
:104D10004FF000034FEACB0343EA5A734FEACA024B
:104D200092469B4643461AEB0303C7F8C8304B46EE
:104D30004BEB0303C7F8CC30D7F8F4305B680022A4
:104D4000C7F8C030C7F8C420D7E930120B46DB18CB
:104D50003B64134642EB03037B64D7E91023D7E996
:104D60003201FBF761FF02460B4611463B4BA3FBAA
:104D700001235B09642202FB03F3CB1ADB0003F17E
:104D80003202364BA3FB02235B095B0003F4F8738A
:104D90001C44D7F8FC300022C7F8B830C7F8BC2054
:104DA000D7E92E8942464B469118B9635B41FB63B4
:104DB000D7E90E2341465118396349464B417B637D
:104DC0004FF000024FF00003D7E90CAB5946CB007F
:104DD000514643EA51735146CA00104619460346EC
:104DE00042469B18C7F8B0304B460A4642EB0303D5
:104DF000C7F8B430D7F8F4305B680022C7F8A830A1
:104E0000C7F8AC20D7E92A120B46DB18BB62134661
:104E100042EB0303FB62D7E90A23D7E92C01FBF736
:104E200003FF02460B460D4BA3FB02135B096421F3
:104E300001FB03F3D31ADB003233084AA2FB03233E
:104E40005B0903F00702D7F8F4301B6822449A602C
:104E500006E100BF00100140001401401F85EB5126
:104E6000D7F8FC300022C7F8A030C7F8A420D7E953
:104E7000288942464B46911839625B417B62D7E9EB
:104E8000082341465418494643EB01054FF0000200
:104E90004FF00003EB0043EA5473E20014461D4652
:104EA0004346E318C7F898304B4645EB0303C7F871
:104EB0009C30D7F8F4305B680022C7F89030C7F810
:104EC00094204FF000024FF00003D7E92445294613
:104ED0008B00214643EA917321468A00D7E92601D7
:104EE000FBF7A2FE02460B46604BA3FB02235B09C5
:104EF0001C01D7F8FC300022C7F88830C7F88C2096
:104F0000D7E9228942464B469118B9615B41FB6162
:104F1000D7E9062341465118396149464B417B6127
:104F20004FF000024FF00003D7E904AB5946CB0025
:104F3000514643EA51735146CA001046194603468A
:104F400042469B18C7F880304B460A4642EB0303A3
:104F5000C7F88430D7F8F4305B680022BB67FA6783
:104F60004FF000024FF00003D7E91E8949468B003D
:104F7000414643EA917341468A00D7E92001FBF795
:104F800053FE02460B461146384BA3FB01235B0937
:104F9000642202FB03F3CB1A1B013233334AA2FB18
:104FA00003235B0903F0F0031C44D7F8FC30002214
:104FB0003B677A67D7E91C8942464B469118B9602E
:104FC0005B41FB60D7E902234146511839604946ED
:104FD0004B417B604FF000024FF00003D7E900AB7C
:104FE0005946CB00514643EA51735146CA00104618
:104FF0001946034642469B18BB664B460A4642EB9F
:105000000303FB66D7F8F4305B6800223B667A66E0
:105010004FF000024FF00003D7E9188949468B0092
:10502000414643EA917341468A00D7E91A01FBF7EA
:10503000FBFD02460B460D4BA3FB02135B096421EB
:1050400001FB03F3D31A1B013233084AA2FB0323EB
:105050005B0903F00F02D7F8F4301B6822449A6012
:1050600000BF07F58077BD46BDE8B08F1F85EB51C7
:1050700084B080B584B000AF786007F11C0080E890
:105080000E003B6B012B22D17B689B6B23F480329B
:105090007B689A637B68DB6823F4840323F0400316
:1050A0007A68D3607B68DB6823F440127B68DA603F
:1050B000FB6C012B05D17B68DB6843F480127B68B5
:1050C000DA60786800F050FA0346FB731AE07B68F8
:1050D000DB6843F040027B68DA60786800F044FAED
:1050E0000346FB733B6C002B06D17B689B6B43F440
:1050F00080327B689A6305E07B689B6B23F4803287
:105100007B689A63BB6A012B0BD17B689B6843F079
:1051100006027B689A607B689B6843F020027B688C
:105120009A60FB7B18461037BD46BDE8804004B04E
:10513000704780B483B000AF78607B689B6823F0D1
:1051400001027B689A60002318460C37BD465DF863
:10515000047B704780B582B000AF78600B46FB706F
:105160007B68DB6823F0C0427B68DA60FB78012B48
:1051700006D17B68DB6843F000527B68DA600BE0A5
:10518000FB78002B06D17B68DB6843F080427B68AC
:10519000DA6001E0012303E03220FCF777FC002312
:1051A00018460837BD4680BD84B080B586B000AFD4
:1051B000786007F1240080E80E000023FB757B680F
:1051C000FB6000233B6109E07A683B6940339B0048
:1051D000134400225A603B6901333B613B690E2B4B
:1051E000F2D9FB6C002B1CD1FB6803F500635B68F4
:1051F000FA6802F5006243F0020353607B689B6B20
:1052000023F400127B689A637B681B6843F04002BA
:105210007B681A607B681B6843F080027B681A60B9
:1052200005E07B689B6B43F400127B689A63FB6824
:1052300003F560631A4600231360FB6803F50063FF
:105240001946FB6803F500631A460B681360BB6BD5
:10525000012B0CD1FB6A002B04D10021786800F0EF
:1052600049F908E00121786800F044F903E00321DE
:10527000786800F03FF91021786800F0F3F80346F1
:10528000002B01D00123FB75786800F011F903466B
:10529000002B01D00123FB75FB6803F500631A4660
:1052A00000231361FB6803F500631A460023536172
:1052B000FB6803F500631A460023D36100233B61BA
:1052C00043E03B695A01FB68134403F510631B6814
:1052D00003F00043B3F1004F18D13B69002B0AD112
:1052E0003B695A01FB68134403F510631A464FF0FB
:1052F0000063136013E03B695A01FB68134403F534
:1053000010631A464FF09043136008E03B695A015E
:10531000FB68134403F510631A46002313603B69CE
:105320005A01FB68134403F510631A460023136106
:105330003B695A01FB68134403F510631A464FF6A4
:105340007F3393603B6901333B617B6A3A699A42E0
:10535000B7D300233B6143E03B695A01FB68134428
:1053600003F530631B6803F00043B3F1004F18D11D
:105370003B69002B0AD13B695A01FB68134403F5D2
:1053800030631A464FF00063136013E03B695A0123
:10539000FB68134403F530631A464FF090431360E3
:1053A00008E03B695A01FB68134403F530631A4671
:1053B000002313603B695A01FB68134403F5306313
:1053C0001A46002313613B695A01FB68134403F535
:1053D00030631A464FF67F3393603B6901333B617C
:1053E0007B6A3A699A42B7D3FB6803F500631B698D
:1053F000FA6802F5006223F4807313617B6800226F
:105400009A617B686FF080425A613B6B002B05D13B
:105410007B689B6943F010027B689A617B689A699C
:105420000F4B13437A689361FB6B002B05D07B68AD
:105430009B6943F008027B689A61FB6C012B07D1E2
:105440007B689B6943F0804343F004037A6893616F
:10545000FB7D18461837BD46BDE8804004B0704754
:1054600000383C8080B485B000AF7860396000239C
:10547000FB603B689B0143F020027B681A61FB687C
:105480000133FB60FB68094A934201D9032306E01C
:105490007B681B6903F02003202BF0D00023184603
:1054A0001437BD465DF8047B704700BF400D030014
:1054B00080B485B000AF78600023FB607B68102269
:1054C0001A61FB680133FB60FB68094A934201D90A
:1054D000032306E07B681B6903F01003102BF0D058
:1054E000002318461437BD465DF8047B704700BFA3
:1054F000400D030080B485B000AF78600B46FB70B0
:105500007B68FB60FB6803F500631A68FB78F96849
:1055100001F5006113430B60002318461437BD46A4
:105520005DF8047B704780B485B000AF78607B681D
:10553000FB60FB6803F560631B68FA6802F5606254
:1055400023F003031360FB6803F500635B68FA68EC
:1055500002F5006243F0020353600023184614373B
:10556000BD465DF8047B704780B485B000AF7860BD
:105570000023FB60FB680133FB60FB68134A934226
:1055800001D903231BE07B681B69002BF2DA00239F
:10559000FB607B681B6943F001027B681A61FB6852
:1055A0000133FB60FB68094A934201D9032306E0FB
:1055B0007B681B6903F00103012BF0D00023184620
:1055C0001437BD465DF8047B704700BF400D0300F3
:1055D00080B485B000AF786039607B68FB6004E020
:1055E000FB685A1CFA6000221A703B685A1E3A6027
:1055F000002BF5D100BF00BF1437BD465DF8047B1A
:10560000704780B487B000AFF860B9607A6000235B
:105610003B6100237B6110E07B69FA6813441A78D0
:105620007B69B9680B441B785340DBB21A463B696F
:1056300013433B617B6901337B617A697B689A42E2
:10564000EADB3B6918461C37BD465DF8047B7047B2
:1056500080B483B000AF786039607A683B68934269
:1056600028BF134618460C37BD465DF8047B7047CB
:1056700080B483B000AF786039607B681B0CDAB20D
:105680003B681A707B681A0A3B680133D2B21A7001
:105690003B6802337A68D2B21A7000BF0C37BD463D
:1056A0005DF8047B704780B483B000AF0346396077
:1056B000FB80FB881B0A9BB2DAB23B681A703B681E
:1056C0000133FA88D2B21A7000BF0C37BD465DF8BC
:1056D000047B704780B483B000AF786039607B682A
:1056E0001B0EDAB23B681A707B681A0C3B680133F8
:1056F000D2B21A707B681A0A3B680233D2B21A70AF
:105700003B6803337A68D2B21A7000BF0C37BD46CB
:105710005DF8047B704780B483B000AF7860396077
:105720007B681B781A047B6801331B781B021343C8
:105730007A68023212781A433B681A6000BF0C374D
:10574000BD465DF8047B704780B483B000AF7860DD
:1057500039607B681B781B021AB27B6801331B78A7
:105760001BB213431BB29AB23B681A8000BF0C37BE
:10577000BD465DF8047B704780B483B000AF7860AD
:1057800039607A683B68D31A013BDB0FDBB2013B1F
:10579000DBB218460C37BD465DF8047B704780B419
:1057A00083B000AF786039607A683B68D31ADB0F4A
:1057B000DBB2013BDBB218460C37BD465DF8047B1B
:1057C000704780B483B000AF786039607A683B6816
:1057D000D31ADB0F013B18460C37BD465DF8047B3E
:1057E000704780B483B000AF786039603A687B68F6
:1057F000D31A013BDB0FDBB2013BDBB218460C379F
:10580000BD465DF8047B704780B483B000AF78601C
:1058100039603A687B68D31ADB0FDBB2013BDBB23D
:1058200018460C37BD465DF8047B704790B583B0D1
:1058300000AF7860396039687868FFF79DFF0346EC
:105840001C4639687868FFF7CCFF03462343DBB278
:1058500018460C37BD4690BD80B483B000AF0346F8
:10586000FB710B46BB7113467B71FB79DB43DAB2EC
:105870007B791340DAB2B979FB790B40DBB2134381
:10588000DBB218460C37BD465DF8047B704780B428
:1058900087B000AFB9607A601A460346FB731346BF
:1058A000BB8100237B6119E07B69BA6813441978D6
:1058B0007B69BA6813441A787B69786803441B785B
:1058C0005340DAB2FB7B1340DAB27B69B868034419
:1058D0004A40D2B21A707B6901337B61BB897A6915
:1058E0009A42E1DB00BF00BF1C37BD465DF8047B78
:1058F00070472DE9B00F87B000AFF860B9607A60EB
:10590000BB6800229A4693464FF000024FF0000316
:1059100053460022796800200C46054642EA0408F6
:1059200043EA0509C7E90489F968D7E90423C1E90D
:105930000023F8681C37BD46BDE8B00F704780B43F
:1059400085B000AFC7E90201C7E90023D7E902012A
:10595000D7E90023904271EB03032CBF01230023FE
:10596000DBB218461437BD465DF8047B704780B43F
:1059700083B000AF78607B6893F8C831032B06D101
:105980007B6893F8C931002B01D0012300E000238C
:1059900018460C37BD465DF8047B704780B483B071
:1059A00000AF78607B6893F8C831032B06D17B6821
:1059B00093F8C931022B01D9012300E000231846D6
:1059C0000C37BD465DF8047B704780B485B000AFEE
:1059D000B8803B79032B04D17B79032B01D90123B8
:1059E00000E00023FB60FB6818461437BD465DF8F5
:1059F000047B704780B483B000AF786039607B6807
:105A000093F8B432002B0FD03B68002B05D07B6895
:105A100093F8C130002B05D106E07B6893F8D530B0
:105A2000002B01D0012300E0002318460C37BD46AF
:105A30005DF8047B704780B483B000AF7860398034
:105A40007B681A463B461B8813807B6801229A704C
:105A50007B680022DA7000BF0C37BD465DF8047B1E
:105A6000704780B586B000AFF860B9607A600023F7
:105A70007B61A4220021F86839F074F9FB68BA68E8
:105A80001A60FB680122DA60FB68FA689A64FB68B6
:105A90004FF4FA721A67FB68032283F85020FB6800
:105AA0000833184637F044FD0346002B06DAFB683E
:105AB0006FF4CE721A616FF069035EE0FB686FF0FD
:105AC0000102DA63FB688022A3F85420FB684FF4DC
:105AD0000072A3F85620FB688022A3F85820FB68C8
